{
  "_format": "hh-sol-artifact-1",
  "contractName": "Ballot",
  "sourceName": "src/contracts/Ballot.sol",
  "abi": [
    {
      "inputs": [
        {
          "internalType": "address",
          "name": "_voterRegistryAddress",
          "type": "address"
        }
      ],
      "stateMutability": "nonpayable",
      "type": "constructor"
    },
    {
      "anonymous": false,
      "inputs": [
        {
          "indexed": true,
          "internalType": "uint256",
          "name": "candidateId",
          "type": "uint256"
        },
        {
          "indexed": false,
          "internalType": "string",
          "name": "name",
          "type": "string"
        },
        {
          "indexed": false,
          "internalType": "string",
          "name": "party",
          "type": "string"
        }
      ],
      "name": "CandidateAdded",
      "type": "event"
    },
    {
      "anonymous": false,
      "inputs": [
        {
          "indexed": false,
          "internalType": "string",
          "name": "name",
          "type": "string"
        },
        {
          "indexed": false,
          "internalType": "string",
          "name": "description",
          "type": "string"
        },
        {
          "indexed": false,
          "internalType": "uint256",
          "name": "startTime",
          "type": "uint256"
        },
        {
          "indexed": false,
          "internalType": "uint256",
          "name": "endTime",
          "type": "uint256"
        }
      ],
      "name": "ElectionCreated",
      "type": "event"
    },
    {
      "anonymous": false,
      "inputs": [
        {
          "indexed": false,
          "internalType": "string",
          "name": "name",
          "type": "string"
        },
        {
          "indexed": false,
          "internalType": "uint256",
          "name": "totalVotes",
          "type": "uint256"
        }
      ],
      "name": "ElectionEnded",
      "type": "event"
    },
    {
      "anonymous": false,
      "inputs": [
        {
          "indexed": true,
          "internalType": "address",
          "name": "previousOwner",
          "type": "address"
        },
        {
          "indexed": true,
          "internalType": "address",
          "name": "newOwner",
          "type": "address"
        }
      ],
      "name": "OwnershipTransferred",
      "type": "event"
    },
    {
      "anonymous": false,
      "inputs": [
        {
          "indexed": false,
          "internalType": "address",
          "name": "account",
          "type": "address"
        }
      ],
      "name": "Paused",
      "type": "event"
    },
    {
      "anonymous": false,
      "inputs": [
        {
          "indexed": false,
          "internalType": "address",
          "name": "account",
          "type": "address"
        }
      ],
      "name": "Unpaused",
      "type": "event"
    },
    {
      "anonymous": false,
      "inputs": [
        {
          "indexed": true,
          "internalType": "address",
          "name": "voter",
          "type": "address"
        },
        {
          "indexed": true,
          "internalType": "uint256",
          "name": "candidateId",
          "type": "uint256"
        }
      ],
      "name": "VoteCast",
      "type": "event"
    },
    {
      "inputs": [
        {
          "internalType": "string",
          "name": "_name",
          "type": "string"
        },
        {
          "internalType": "string",
          "name": "_party",
          "type": "string"
        },
        {
          "internalType": "string",
          "name": "_imageUrl",
          "type": "string"
        }
      ],
      "name": "addCandidate",
      "outputs": [],
      "stateMutability": "nonpayable",
      "type": "function"
    },
    {
      "inputs": [
        {
          "internalType": "uint256",
          "name": "_candidateId",
          "type": "uint256"
        }
      ],
      "name": "castVote",
      "outputs": [],
      "stateMutability": "nonpayable",
      "type": "function"
    },
    {
      "inputs": [
        {
          "internalType": "string",
          "name": "_name",
          "type": "string"
        },
        {
          "internalType": "string",
          "name": "_description",
          "type": "string"
        },
        {
          "internalType": "uint256",
          "name": "_startTime",
          "type": "uint256"
        },
        {
          "internalType": "uint256",
          "name": "_endTime",
          "type": "uint256"
        }
      ],
      "name": "createElection",
      "outputs": [],
      "stateMutability": "nonpayable",
      "type": "function"
    },
    {
      "inputs": [],
      "name": "currentElection",
      "outputs": [
        {
          "internalType": "string",
          "name": "name",
          "type": "string"
        },
        {
          "internalType": "string",
          "name": "description",
          "type": "string"
        },
        {
          "internalType": "uint256",
          "name": "startTime",
          "type": "uint256"
        },
        {
          "internalType": "uint256",
          "name": "endTime",
          "type": "uint256"
        },
        {
          "internalType": "bool",
          "name": "isActive",
          "type": "bool"
        },
        {
          "internalType": "uint256",
          "name": "candidateCount",
          "type": "uint256"
        },
        {
          "internalType": "uint256",
          "name": "totalVotes",
          "type": "uint256"
        }
      ],
      "stateMutability": "view",
      "type": "function"
    },
    {
      "inputs": [],
      "name": "endElection",
      "outputs": [],
      "stateMutability": "nonpayable",
      "type": "function"
    },
    {
      "inputs": [
        {
          "internalType": "uint256",
          "name": "_candidateId",
          "type": "uint256"
        }
      ],
      "name": "getCandidate",
      "outputs": [
        {
          "internalType": "string",
          "name": "name",
          "type": "string"
        },
        {
          "internalType": "string",
          "name": "party",
          "type": "string"
        },
        {
          "internalType": "string",
          "name": "imageUrl",
          "type": "string"
        },
        {
          "internalType": "uint256",
          "name": "voteCount",
          "type": "uint256"
        }
      ],
      "stateMutability": "view",
      "type": "function"
    },
    {
      "inputs": [],
      "name": "getCandidateCount",
      "outputs": [
        {
          "internalType": "uint256",
          "name": "",
          "type": "uint256"
        }
      ],
      "stateMutability": "view",
      "type": "function"
    },
    {
      "inputs": [],
      "name": "getElectionInfo",
      "outputs": [
        {
          "internalType": "string",
          "name": "name",
          "type": "string"
        },
        {
          "internalType": "string",
          "name": "description",
          "type": "string"
        },
        {
          "internalType": "uint256",
          "name": "startTime",
          "type": "uint256"
        },
        {
          "internalType": "uint256",
          "name": "endTime",
          "type": "uint256"
        },
        {
          "internalType": "bool",
          "name": "isActive",
          "type": "bool"
        },
        {
          "internalType": "uint256",
          "name": "totalVotes",
          "type": "uint256"
        }
      ],
      "stateMutability": "view",
      "type": "function"
    },
    {
      "inputs": [],
      "name": "owner",
      "outputs": [
        {
          "internalType": "address",
          "name": "",
          "type": "address"
        }
      ],
      "stateMutability": "view",
      "type": "function"
    },
    {
      "inputs": [],
      "name": "pause",
      "outputs": [],
      "stateMutability": "nonpayable",
      "type": "function"
    },
    {
      "inputs": [],
      "name": "paused",
      "outputs": [
        {
          "internalType": "bool",
          "name": "",
          "type": "bool"
        }
      ],
      "stateMutability": "view",
      "type": "function"
    },
    {
      "inputs": [],
      "name": "renounceOwnership",
      "outputs": [],
      "stateMutability": "nonpayable",
      "type": "function"
    },
    {
      "inputs": [
        {
          "internalType": "address",
          "name": "newOwner",
          "type": "address"
        }
      ],
      "name": "transferOwnership",
      "outputs": [],
      "stateMutability": "nonpayable",
      "type": "function"
    },
    {
      "inputs": [],
      "name": "unpause",
      "outputs": [],
      "stateMutability": "nonpayable",
      "type": "function"
    },
    {
      "inputs": [],
      "name": "voterRegistry",
      "outputs": [
        {
          "internalType": "contract VoterRegistry",
          "name": "",
          "type": "address"
        }
      ],
      "stateMutability": "view",
      "type": "function"
    }
  ],
  "bytecode": "0x608060405234801561001057600080fd5b5060405161172938038061172983398101604081905261002f916100ba565b6100383361006a565b6000805460ff60a01b19169055600180546001600160a01b0319166001600160a01b03929092169190911790556100ea565b600080546001600160a01b038381166001600160a01b0319831681178455604051919092169283917f8be0079c531659141344cd1fd0a4f28419497f9722a3daafe3b4186f6b6457e09190a35050565b6000602082840312156100cc57600080fd5b81516001600160a01b03811681146100e357600080fd5b9392505050565b611630806100f96000396000f3fe608060405234801561001057600080fd5b50600436106100f55760003560e01c80637ad36e8411610097578063ad71f8dc11610066578063ad71f8dc146101d7578063be60040e146101ea578063f2fde38b146101fd578063fcae83a71461021057600080fd5b80637ad36e841461017d5780638456cb591461019057806386852dca146101985780638da5cb5b146101b257600080fd5b80633f4ba83a116100d35780633f4ba83a1461014857806359f78468146101505780635c975abb14610158578063715018a61461017557600080fd5b806330a56347146100fa57806335b8e820146101105780633eb76b9c14610133575b600080fd5b6008546040519081526020015b60405180910390f35b61012361011e36600461102d565b61022b565b604051610107949392919061108c565b61014661014136600461102d565b610457565b005b61014661079a565b6101466107ac565b600054600160a01b900460ff166040519015158152602001610107565b610146610879565b61014661018b36600461117a565b61088b565b610146610a15565b6101a0610a25565b604051610107969594939291906111ee565b6000546001600160a01b03165b6040516001600160a01b039091168152602001610107565b6101466101e5366004611239565b610b7d565b6001546101bf906001600160a01b031681565b61014661020b3660046112c1565b610c98565b610218610d11565b60405161010797969594939291906112f1565b6060806060600060026006015485106102825760405162461bcd60e51b8152602060048201526014602482015273125b9d985b1a590818d85b991a59185d1948125160621b60448201526064015b60405180910390fd5b6000858152600760205260409020600381015481548291600183019160028401919084906102af90611341565b80601f01602080910402602001604051908101604052809291908181526020018280546102db90611341565b80156103285780601f106102fd57610100808354040283529160200191610328565b820191906000526020600020905b81548152906001019060200180831161030b57829003601f168201915b5050505050935082805461033b90611341565b80601f016020809104026020016040519081016040528092919081815260200182805461036790611341565b80156103b45780601f10610389576101008083540402835291602001916103b4565b820191906000526020600020905b81548152906001019060200180831161039757829003601f168201915b505050505092508180546103c790611341565b80601f01602080910402602001604051908101604052809291908181526020018280546103f390611341565b80156104405780601f1061041557610100808354040283529160200191610440565b820191906000526020600020905b81548152906001019060200180831161042357829003601f168201915b505050505091509450945094509450509193509193565b61045f610e53565b60065460ff166104815760405162461bcd60e51b81526004016102799061137b565b6004544210156104d35760405162461bcd60e51b815260206004820152601860248201527f456c656374696f6e20686173206e6f74207374617274656400000000000000006044820152606401610279565b60055442111561051a5760405162461bcd60e51b8152602060048201526012602482015271115b1958dd1a5bdb881a185cc8195b99195960721b6044820152606401610279565b60015460405163eb2119db60e01b81523360048201526000916001600160a01b03169063eb2119db90602401602060405180830381865afa158015610563573d6000803e3d6000fd5b505050506040513d601f19601f8201168201806040525081019061058791906113a7565b9050806105cd5760405162461bcd60e51b8152602060048201526014602482015273159bdd195c881b9bdd081c9959da5cdd195c995960621b6044820152606401610279565b600154604051637e88fcbd60e11b81523360048201526000916001600160a01b03169063fd11f97a90602401602060405180830381865afa158015610616573d6000803e3d6000fd5b505050506040513d601f19601f8201168201806040525081019061063a91906113a7565b9050801561068a5760405162461bcd60e51b815260206004820152601760248201527f566f7465722068617320616c726561647920766f7465640000000000000000006044820152606401610279565b60085483106106cf5760405162461bcd60e51b8152602060048201526011602482015270496e76616c69642063616e64696461746560781b6044820152606401610279565b60008381526007602052604081206003018054916106ec836113c9565b909155505060098054906000610701836113c9565b9091555050600180546040516235e3b960e11b815233600482015260248101929092526001600160a01b031690626bc77290604401600060405180830381600087803b15801561075057600080fd5b505af1158015610764573d6000803e3d6000fd5b50506040518592503391507fa36cc2bebb74db33e9f88110a07ef56e1b31b24b4c4f51b54b1664266e29f45b90600090a3505050565b6107a2610ea0565b6107aa610efa565b565b6107b4610ea0565b6107bc610e53565b60065460ff166107de5760405162461bcd60e51b81526004016102799061137b565b6005544210156108305760405162461bcd60e51b815260206004820152601960248201527f456c656374696f6e206973207374696c6c206f6e676f696e67000000000000006044820152606401610279565b6006805460ff191690556009546040517f4d31db6748edbbd9e5b81d507a6477be9bddc93567dc5e6fac4e6bae81f27fa59161086f91600291906113f0565b60405180910390a1565b610881610ea0565b6107aa6000610f4a565b610893610ea0565b61089b610e53565b4282116108ea5760405162461bcd60e51b815260206004820181905260248201527f53746172742074696d65206d75737420626520696e20746865206675747572656044820152606401610279565b8181116109435760405162461bcd60e51b815260206004820152602160248201527f456e642074696d65206d7573742062652061667465722073746172742074696d6044820152606560f81b6064820152608401610279565b60065460ff16156109965760405162461bcd60e51b815260206004820152601d60248201527f416e20656c656374696f6e20697320616c7265616479206163746976650000006044820152606401610279565b60026109a285826114d3565b5060036109af84826114d3565b50600482905560058190556006805460ff19166001179055600060088190556009556040517fd4033dc12ab8685eeeb16ccfe9d4dc4d5d69385d05ddb7cb14b2a2cb6f1d610790610a07908690869086908690611593565b60405180910390a150505050565b610a1d610ea0565b6107aa610f9a565b60045460055460065460095460028054606095869560009586958695869590946003949093909260ff909116918690610a5d90611341565b80601f0160208091040260200160405190810160405280929190818152602001828054610a8990611341565b8015610ad65780601f10610aab57610100808354040283529160200191610ad6565b820191906000526020600020905b815481529060010190602001808311610ab957829003601f168201915b50505050509550848054610ae990611341565b80601f0160208091040260200160405190810160405280929190818152602001828054610b1590611341565b8015610b625780601f10610b3757610100808354040283529160200191610b62565b820191906000526020600020905b815481529060010190602001808311610b4557829003601f168201915b50505050509450955095509550955095509550909192939495565b610b85610ea0565b610b8d610e53565b60065460ff16610baf5760405162461bcd60e51b81526004016102799061137b565b6004544210610c005760405162461bcd60e51b815260206004820152601c60248201527f456c656374696f6e2068617320616c72656164792073746172746564000000006044820152606401610279565b600854600081815260076020526040902080610c1c86826114d3565b5060018101610c2b85826114d3565b5060028101610c3a84826114d3565b506000600382018190556008805491610c52836113c9565b9190505550817fe64f834082661dd9ed89427b87edb6270fd6dad17198b0938f0edd058914c87f8686604051610c899291906115cc565b60405180910390a25050505050565b610ca0610ea0565b6001600160a01b038116610d055760405162461bcd60e51b815260206004820152602660248201527f4f776e61626c653a206e6577206f776e657220697320746865207a65726f206160448201526564647265737360d01b6064820152608401610279565b610d0e81610f4a565b50565b600280548190610d2090611341565b80601f0160208091040260200160405190810160405280929190818152602001828054610d4c90611341565b8015610d995780601f10610d6e57610100808354040283529160200191610d99565b820191906000526020600020905b815481529060010190602001808311610d7c57829003601f168201915b505050505090806001018054610dae90611341565b80601f0160208091040260200160405190810160405280929190818152602001828054610dda90611341565b8015610e275780601f10610dfc57610100808354040283529160200191610e27565b820191906000526020600020905b815481529060010190602001808311610e0a57829003601f168201915b50505060028401546003850154600486015460068701546007909701549596929591945060ff16925087565b600054600160a01b900460ff16156107aa5760405162461bcd60e51b815260206004820152601060248201526f14185d5cd8589b194e881c185d5cd95960821b6044820152606401610279565b6000546001600160a01b031633146107aa5760405162461bcd60e51b815260206004820181905260248201527f4f776e61626c653a2063616c6c6572206973206e6f7420746865206f776e65726044820152606401610279565b610f02610fdd565b6000805460ff60a01b191690557f5db9ee0a495bf2e6ff9c91a7834c1ba4fdd244a5e8aa4e537bd38aeae4b073aa335b6040516001600160a01b03909116815260200161086f565b600080546001600160a01b038381166001600160a01b0319831681178455604051919092169283917f8be0079c531659141344cd1fd0a4f28419497f9722a3daafe3b4186f6b6457e09190a35050565b610fa2610e53565b6000805460ff60a01b1916600160a01b1790557f62e78cea01bee320cd4e420270b5ea74000d11b0c9f74754ebdbfc544b05a258610f323390565b600054600160a01b900460ff166107aa5760405162461bcd60e51b815260206004820152601460248201527314185d5cd8589b194e881b9bdd081c185d5cd95960621b6044820152606401610279565b60006020828403121561103f57600080fd5b5035919050565b6000815180845260005b8181101561106c57602081850181015186830182015201611050565b506000602082860101526020601f19601f83011685010191505092915050565b60808152600061109f6080830187611046565b82810360208401526110b18187611046565b905082810360408401526110c58186611046565b91505082606083015295945050505050565b634e487b7160e01b600052604160045260246000fd5b600082601f8301126110fe57600080fd5b813567ffffffffffffffff80821115611119576111196110d7565b604051601f8301601f19908116603f01168101908282118183101715611141576111416110d7565b8160405283815286602085880101111561115a57600080fd5b836020870160208301376000602085830101528094505050505092915050565b6000806000806080858703121561119057600080fd5b843567ffffffffffffffff808211156111a857600080fd5b6111b4888389016110ed565b955060208701359150808211156111ca57600080fd5b506111d7878288016110ed565b949794965050505060408301359260600135919050565b60c08152600061120160c0830189611046565b82810360208401526112138189611046565b604084019790975250506060810193909352901515608083015260a09091015292915050565b60008060006060848603121561124e57600080fd5b833567ffffffffffffffff8082111561126657600080fd5b611272878388016110ed565b9450602086013591508082111561128857600080fd5b611294878388016110ed565b935060408601359150808211156112aa57600080fd5b506112b7868287016110ed565b9150509250925092565b6000602082840312156112d357600080fd5b81356001600160a01b03811681146112ea57600080fd5b9392505050565b60e08152600061130460e083018a611046565b8281036020840152611316818a611046565b604084019890985250506060810194909452911515608084015260a083015260c09091015292915050565b600181811c9082168061135557607f821691505b60208210810361137557634e487b7160e01b600052602260045260246000fd5b50919050565b60208082526012908201527127379030b1ba34bb329032b632b1ba34b7b760711b604082015260600190565b6000602082840312156113b957600080fd5b815180151581146112ea57600080fd5b6000600182016113e957634e487b7160e01b600052601160045260246000fd5b5060010190565b60408152600080845461140281611341565b8060408601526060600180841660008114611424576001811461143e5761146f565b60ff1985168884015283151560051b88018301955061146f565b8960005260208060002060005b868110156114665781548b820187015290840190820161144b565b8a018501975050505b50505050506020929092019290925292915050565b601f8211156114ce57600081815260208120601f850160051c810160208610156114ab5750805b601f850160051c820191505b818110156114ca578281556001016114b7565b5050505b505050565b815167ffffffffffffffff8111156114ed576114ed6110d7565b611501816114fb8454611341565b84611484565b602080601f831160018114611536576000841561151e5750858301515b600019600386901b1c1916600185901b1785556114ca565b600085815260208120601f198616915b8281101561156557888601518255948401946001909101908401611546565b50858210156115835787850151600019600388901b60f8161c191681555b5050505050600190811b01905550565b6080815260006115a66080830187611046565b82810360208401526115b88187611046565b604084019590955250506060015292915050565b6040815260006115df6040830185611046565b82810360208401526115f18185611046565b9594505050505056fea2646970667358221220ba8d9afb58c6f45212fa691723fca31139148244c4a026dd581ab8022636425464736f6c63430008130033",
  "linkReferences": {},
  "deployedLinkReferences": {}
}